177014177 16482412         NURIA                                             GAVIRIA SOCIAS                                                                                      C                                                 MADRID                   28055609429951      20190405WDC1668241A442194 TU20140818TC191545 16047351K R000000N   nuriagavaria@yahoo.es                                                                               609429951       NURIA                                             GAVIRIA SOCIAS                                                                                      00811062861HYX   0003096300000000000045870000051000000000120190228167251RUBEN MORA PEREZ    NURIA                                             GAVIRIA SOCIAS                                                                                      609429951       nuriagavaria@yahoo.es                                                                               
177014177 41570313-ECF     INDUSTRIA TECNICA DE AUTOMOCION Y REPUESTOS S.L.                                                                                                      C ISLA DE JAVA 5                                  MADRID (MADRID)          28034913341500      20190405WDF4157031U248609 LI        T19416   B82850785 R000000N   Notiene@notiene.com                                                                                                 ANA                                               CORTES JIMENEZ                                                                                      00000058885KVF   0000000000000000000045150000000000000000120190304201041JORGE SANZ          ANA                                               CORTES JIMENEZ                                                                                      697133724       alexvalencia24.ave@gmail.com                                                                        
177014177 205040           SEA2SEE S.L.                                                                                                                                          C/ RAFAEL BERGAMIN Nº18 7ºD                       MADRID                   28043915191067      20190405WDD2050401F068199 TU20140821SEGU19106B87610374 7000000N   mcarpio@sea2see.es                                                                                  629083096       SEA2SEE                                           S.L.                                                                                                00811910588HYY   0000805400000000002278980000000000000000120190322238491JUAN LOPEZ DE PRADO                                                                                                                                                                                                                                                                           
177014177 20300612         ANGEL                                             IZQUIERDO YAÑEZ                                                                                     C MOTA DEL CURVO 22                               MADRID                   28043913886974      20190405WDB2030061A157882 TU        TC191540 00231509Z R000000S   Notiene@notiene.com                                                                                 649268275       IZQUIERDO                                         YAÑEZ                                                                                               02043068328BJG   0007389100013672000586370001019400000000120190321262851ALEJANDRO IZQUIERDO ANGEL                                             IZQUIERDO YAÑEZ                                                                                     913886974       Notiene@notiene.com                                                                                 
177014177 20500410         JOSE ANTONIO                                      ESCUDERO SANCHEZ                                                                                    C LUIS MOYA BLANCO 29                             MADRID                   28055               20190405WDD2050041R137373 TU20151223TC191542 74723270L R000000S   jaescuderos@gmail.com                                                                               659522172       JOSE ANTONIO                                      ESCUDERO SANCHEZ                                                                                    00212533895JKW   0005068500003629000212400000000000000000120190328263341ALEJANDRO IZQUIERDO JOSE ANTONIO                                      ESCUDERO SANCHEZ                                                                                                    jaescuderos@gmail.com                                                                               
177014177                  JOSE CARLOS                                       PINILLA RODRIGUEZ                                                                                   C ASTURIAS 6                                      MADRID                   28029609172730      20190405WDF63970113047273 LI20040426TC191541 51920353S R000000N   Notiene@notiene.com                                                                                 609172730       JOSE CARLOS                                       PINILLA RODRIGUEZ                                                                                   02800267796CVJ   0010544100000000000103200000000000000000120190323306141JOSE ANGEL ORTIZ LUCJOSE CARLOS                                       PINILLA RODRIGUEZ                                                                                   609172730       Notiene@notiene.com                                                                                 
177014177 21102212         JUAN ANTONIO                                      MONTERO DELGADO                                                                                     C ANASTASIA LOPEZ Nº 1                            MADRID                   28034917342776      20190405WDB2110221A826373 TU20050629TC191552 51325178B R000000N   Notiene@notiene.com                                                                                 654627688       MONTERO                                           DELGADO                                                                                             01085142373DMF   0014107100011538000756990000000000000000120190402307621RUBEN MORA PEREZ    JUAN ANTONIO                                      MONTERO DELGADO                                                                                     917342776       Notiene@notiene.com                                                                                 
177014177 16602410         PEDRO                                             MUÑOZ RAMIREZ                                                                                       AVDA DE VALDEMARIN 110 1B                         MADRID                   28023910000000      20190405WDC1660241A079501 TU20120627GARA1911552857627Q M000000N   pedromram@gmail.com                                                                                 677536592       MUÑOZ                                             RAMIREZ                                                                                             01989062604HLH   0002419000023759000286160000000000000000120190328308561WILLIAM VARGAS      PEDRO                                             MUÑOZ RAMIREZ                                                                                       910000000       pedromram@gmail.com                                                                                 
177014177 16602410         PEDRO                                             MUÑOZ RAMIREZ                                                                                       AVDA DE VALDEMARIN 110 1B                         MADRID                   28023910000000      20190405WDC1660241A079501 TU20120627GARA1911552857627Q M000000N   pedromram@gmail.com                                                                                 677536592       MUÑOZ                                             RAMIREZ                                                                                             01989062604HLH   0002361700007190001326200000000000000000120190328308562WILLIAM VARGAS      PEDRO                                             MUÑOZ RAMIREZ                                                                                       910000000       pedromram@gmail.com                                                                                 
177014177 24620110         FRANCISCO JOSE                                    GARCIA SPINA                                                                                        C PETUNIA 46                                      CARRETERA BARAJAS (MADRID28860               20190405WDD2462011N102517 TU20150113TC191551 53438825G R000000S   nydia.real@gmail.com                                                                                645001446       GARCIA                                            SPINA                                                                                               00835364015JCB   0006548100008548000358950000000000000000120190326311301ALEJANDRO IZQUIERDO FRANCISCO JOSE                                    GARCIA SPINA                                                                                                        nydia.real@gmail.com                                                                                
177014177 24620110         FRANCISCO JOSE                                    GARCIA SPINA                                                                                        C PETUNIA 46                                      CARRETERA BARAJAS (MADRID28860               20190405WDD2462011N102517 TU20150113GARA1911553438825G 4000000N   nydia.real@gmail.com                                                                                645001446       GARCIA                                            SPINA                                                                                               00835364015JCB   0000000000000000000025350000000000000000120190326311302ALEJANDRO IZQUIERDO FRANCISCO JOSE                                    GARCIA SPINA                                                                                                        nydia.real@gmail.com                                                                                
177014177                  FRANCISCO JAVIER                                  ZARCERO MAYORAL                                                                                     C PASEO FLORIDA Nº16 4ºB                          MADRID                   28008609032074      20190405WDB2030081A605943 TU20031120TC191524 50423781F R000000S   Notiene@notiene.com                                                                                 609032074       JAVIER                                            ZARZEDO                                                                                             02411792176CNW   0002859500003968000186910000000000000000120190401312141RAUL DIEZ BARRAGAN  FRANCISCO JAVIER                                  ZARCERO MAYORAL                                                                                     609032074       Notiene@notiene.com                                                                                 
177014177 22203212         INDUSTRIA TECNICA REPARACION DE AUTOMOVILES, S.L.U                                                                                                    C PRADILLO 19                                     MADRID                   28002915158840      20190405WDD2220321A333924 TU20170530TC191530 B82850736 R000000N   Notiene@notiene.com                                                                                                 JOSE                                              LUIS                                                                                                00150082900JZM   0000000000000000000107050000000000000000120190404319761RAUL DIEZ BARRAGAN                                                                                                                                                                                                                                                                            
177014177 20400710         GALA TERESA                                       BARNETO HERNANDEZ                                                                                   C LEOPOLDO ALAS CLARIN Nº 6                       MADRID                   28035913733802      20190405WDD2040071A146604 TU        TC191534 02533471K R000000N   Notiene@notiene.com                                                                                 610574782       BARNETO                                           HERNANDEZ                                                                                           00466809812GCW   0000000000000000000152920000000000000000120190328322131FERNANDO PRIETO PEREGALA TERESA                                       BARNETO HERNANDEZ                                                                                   913733802       Notiene@notiene.com                                                                                 
177014177 20400210         LUIS                                              SALAMANCA MAESSO                                                                                    PLAZA DEL DOCTOR LAGUNA, 9 10ºE                   MADRID                   28009               20190405WDD2040021A658898 TU20130214FRQ19115 29999871M F000000N   lusosf@yahoo.es                                                                                     639104357       LUIS                                              SALAMANCA MAESSO                                                                                    00901561959HNX   0000000000000000000330580000000000000000120190327326742RAUL DIEZ BARRAGAN  LUIS                                              SALAMANCA MAESSO                                                                                                    lusosf@yahoo.es                                                                                     
177014177                  JAVIER                                            OLEAS ARIAS                                                                                         C MIRADOR DE LA REINA 137 137 2 A                 MADRID                   28035630611220      20190405WDC1569081J167279 TU20150914TC191553 71677498E R000000N   JJJOLEA@GMAIL.COM                                                                                   608782355       JAVIER                                            OLEAS                                                                                               00685357957JHX   0002831400004234000093460000424800000000120190329328441ALEJANDRO IZQUIERDO JAVIER                                            OLEAS ARIAS                                                                                         630611220       JJJOLEA@GMAIL.COM                                                                                   
177014177                  JAVIER                                            OLEAS ARIAS                                                                                         C MIRADOR DE LA REINA 137 137 2 A                 MADRID                   28035630611220      20190405WDC1569081J167279 TU20150914GARA1911571677498E 4000000N   JJJOLEA@GMAIL.COM                                                                                   608782355       JAVIER                                            OLEAS                                                                                               00685357957JHX   0000014800000036000033790000000000000000120190329328442ALEJANDRO IZQUIERDO JAVIER                                            OLEAS ARIAS                                                                                         630611220       JJJOLEA@GMAIL.COM                                                                                   
177014177                  FELIX                                             ARENAS ZARCO                                                                                        C CRUZ DEL SUR 7 3 5 C                            MADRID                   28007616916546      20190405WDB2093561F209778 TU20060801TC191526 06130500B R000000N   Notiene@notiene.com                                                                                 616916546       ARENAS                                            ZARCO                                                                                               01811271319FDR   0002381400000000000237880000000000000000120190403339421ALEJANDRO IZQUIERDO FELIX                                             ARENAS ZARCO                                                                                        616916546       Notiene@notiene.com                                                                                 
177014177 63981110         ANA DEL ROSARIO                                   MOREU MOREU MUNAIZ                                                                                  C CALERUEGA, 88                                   MADRID                   28033913024565      20190405WDF63981113416147 LI20080303TC191520 50825830Q R000000N   Notiene@notiene.com                                                                                 609245696       ANA DEL ROSARIO                                   MOREU MOREU MUNAIZ                                                                                  00958188598GBN   0002745300014385000041920000225800000000120190402340091FERNANDO PRIETO PEREANA DEL ROSARIO                                   MOREU MOREU MUNAIZ                                                                                  913024565       Notiene@notiene.com                                                                                 
177014177 16412110         PARKINGS HIPANICOS S.L.                                                                                                                               C FINISTERRE 26 LOCA                              MADRID                   28029670329751      20190405WDC1641211A746836 TU20111227TC191528 B82208950 R000000N   Notiene@notiene.com                                                                                 670329751       APARCALIA                                         GESTION,S.L.                                                                                        00604010302HHR   0007665500004936000356820000000000000000120190403342651RUBEN MORA PEREZ                                                                                                                                                          670329751       Notiene@notiene.com                                                                                 
177014177 63981313         MUTUA MADRILEÑA AUTOMOVILISTA                                                                                                                         PSO CASTELLANA 33                                 MADRID                   28046902555555      20190405WDF63981313431147 LI20080418SEGU19106V28027118 C000000S   Notiene@notiene.com                                                                                                 GARCIA                                            DE                                                                                                  01772253191GCW   0002265100000000000024870000248200000000120190401343901JOSE ANGEL ORTIZ LUCJULIAN                                            GARCIA DE PABLO                                                                                     910000000       Notiene@notiene.com                                                                                 
177014177 63981313         JULIAN                                            GARCIA DE PABLO                                                                                     C PEÑA SANTA, 20 3ºD                              MADRID                   28034910000000      20190405WDF63981313431147 LI20080418RFRQ1918 50833544W F000000S   Notiene@notiene.com                                                                                 629340376       GARCIA                                            DE                                                                                                  01772253191GCW   0000000000000000000165290000000000000000120190401343902JOSE ANGEL ORTIZ LUCJULIAN                                            GARCIA DE PABLO                                                                                     910000000       Notiene@notiene.com                                                                                 
177014177 205047           JORGE ALEJANDRO                                   MENENDEZ PARDO                                                                                      C PROFESOR WAKSMAN 8 2ºB                          MADRID                   28036605971786      20190405WDD2050471F447490 TU20170413TC191550 51098291L R000000N   jmendezpardo@gmail.com                                                                              605971786       MENDEZ                                            PARDO                                                                                               00293022618KFN   0002992000003870000186900000000000000000120190404345641RUBEN MORA PEREZ    JORGE ALEJANDRO                                   MENENDEZ PARDO                                                                                      605971786       jmendezpardo@gmail.com                                                                              
177014177 205047           JORGE ALEJANDRO                                   MENENDEZ PARDO                                                                                      C PROFESOR WAKSMAN 8 2ºB                          MADRID                   28036605971786      20190405WDD2050471F447490 TU20170413GARA1911551098291L 4000000N   jmendezpardo@gmail.com                                                                              605971786       MENDEZ                                            PARDO                                                                                               00293022618KFN   0000014800000036000059140000000000000000120190404345642RUBEN MORA PEREZ    JORGE ALEJANDRO                                   MENENDEZ PARDO                                                                                      605971786       jmendezpardo@gmail.com                                                                              
177014177                  GBISTER IBERICA SL                                                                                                                                    AVDA CORDOBA 13                                   VALDEMORO                28343609904880      20190405WDB9071551N021690 LI        TC191522 B83350215 R000000N   Notiene@notiene.com                                                                                 609904880                                                                                                                                                             0008249021690    0000195700000000000509550000000000000000120190401349111JOSE ANGEL ORTIZ LUC                                                                                                                                                      609904880       Notiene@notiene.com                                                                                 
177014177 16482412         ALD AUTOMOTIVE S.A.U                                                                                                                                  CRA DE POZUELO 32                                 MADRID                   28220902100884      20190405WDC1668241A442194 TU20140818TC191535 A80292667 R000000N   Notiene@notiene.com                                                                                 616978722       ALD                                               AUTOMOTIVE                                                                                          00832362861HYX   0005443700018013000188770000214000000000120190404349571RUBEN MORA PEREZ    NURIA                                             GAVIRIA SOCIAS                                                                                      609429951       nuriagavaria@yahoo.es                                                                               
177014177 16482412         NURIA                                             GAVIRIA SOCIAS                                                                                      C                                                 MADRID                   28055609429951      20190405WDC1668241A442194 TU20140818TC191544 16047351K R000000N   nuriagavaria@yahoo.es                                                                               609429951       ALD                                               AUTOMOTIVE                                                                                          00832362861HYX   0000250900000000000000000000000000000000120190404349572RUBEN MORA PEREZ    NURIA                                             GAVIRIA SOCIAS                                                                                      609429951       nuriagavaria@yahoo.es                                                                               
177014177 90663313-EGA     INDUSTRIA TECNICA DE AUTOMOCION Y REPUESTOS S.L.                                                                                                      C ISLA DE JAVA 5                                  MADRID (MADRID)          28034913341500      20190405WDB9066331P261616 LI20170228T19417   B82850785 R000000N   Notiene@notiene.com                                                                                                 CONSTRUCCION RYF MADRID SL                                                                                                                            00353235927JXD   0000729100004101000067730000000000000000120190401349971JOSE ANGEL ORTIZ LUCCONSTRUCCION RYF MADRID SL                                                                                                                            913340358       raresconstantin@hotmail.es                                                                          
177014177 21205710         CARMEN                                            CARRERAS MENGIBAR                                                                                   C SOPELANA, Nº 18                                 MADRID                   28023913077985      20190405WDD2120571A276055 TU20110405TC191538 00436604H R000000N   ccarrerasm@hotmail.es                                                                               696980110       CARRERAS                                          MENGIBAR                                                                                            01765062523HCS   0003785900004440000297340000000000000000120190404356061WILLIAM VARGAS      CARMEN                                            CARRERAS MENGIBAR                                                                                   913077985       ccarrerasm@hotmail.es                                                                               
177014177 21205710         VICENTE                                           COELLO                                                                                              C SOPELANA 18                                     MADRID                   28023696980110      20190405WDD2120571A276055 TU20110405TC191539 02693928F R000000N   Notiene@notiene.com                                                                                 696980110       CARRERAS                                          MENGIBAR                                                                                            01765062523HCS   0001072400004596000118940000000000000000120190404356062WILLIAM VARGAS      CARMEN                                            CARRERAS MENGIBAR                                                                                   913077985       ccarrerasm@hotmail.es                                                                               
177014177 213048           ATHLON CAR LEASE SPAIN S.A                                                                                                                            C CALENDULA 93, EDIFICIO H, MINIPARC III          ALCOBENDAS (MADRID)      28109934776563      20190405WDD2130481A254775 TU20170504TC191532 A62288428 R000000N   Notiene@notiene.com                                                                                 607700404       ATHLON CAR LEASE SPAIN S.A                                                                                                                            00237595305JYV   0002323100006368000083160000000000000000120190404357761ALEJANDRO IZQUIERDO ATHLON CAR LEASE SPAIN S.A                                                                                                                            934776563       Notiene@notiene.com                                                                                 
177014177 2050041          ANTONIO                                           MUÑOZ AVILA                                                                                         C RAFAEL ALBERTI 2                                COVITAL (MADRID)         28891916607342      20190405WDD2050041R269133 TU20170406GARA1911450028904V M000000N   elmister81@hotmail.com                                                                              600491794       MUÑOZ                                             AVILA                                                                                               00398248571JYD   0002059200017884000185840000000000000000120190405358631WILLIAM VARGAS      ANTONIO                                           MUÑOZ AVILA                                                                                         916607342       elmister81@hotmail.com                                                                              
177014177 90663310         ADRIAN                                            IULIAN MINCULESCU                                                                                   C AZCOITIA, 40 4º C                               MADRID                   28044620451497      20190405WDB9066331S604109 LI20110919TC191547 X6755550J R000000N   Notiene@notiene.com                                                                                 620451497       IULIAN                                            MINCULESCU                                                                                          00625786767HGG   0002309000012250000093200000293500000000120190404360391FERNANDO PRIETO PEREADRIAN                                            IULIAN MINCULESCU                                                                                   620451497       Notiene@notiene.com                                                                                 
177014177 8186             INDUSTRIA TECNICA REPARACION DE AUTOMOVILES, S.L.U                                                                                                    C PRADILLO 19                                     MADRID                   28002915158840      20190405WDD1760121J376031 TU20150518TC191523 B82850736 R000000N   Notiene@notiene.com                                                                                                 ADAME                                             GOMEZ                                                                                               00626461990JFM   0001672200000000000059470000297400000000120190403360711ALEJANDRO IZQUIERDO CARLOS                                            ADAME GOMEZ                                                                                         91              Notiene@notiene.com                                                                                 
177014177                  JUAN CARLOS                                       OSORIO CRIADO                                                                                       C ALFREDO MARQUERIE 55                            MADRID                   28034913737391      20190405WDD1690071J131489 TU20050509TC191549 33508745E R000000S   jcosorioc@gmail.com                                                                                 690837881       ISABEL                                            CAMINO                                                                                              01553161254DKG   0004130100003143000331340000000000000000120190403360751ALEJANDRO IZQUIERDO JUAN CARLOS                                       OSORIO CRIADO                                                                                       913737391       jcosorioc@gmail.com                                                                                 
177014177 41570313-EC2     INDUSTRIA TECNICA DE AUTOMOCION Y REPUESTOS S.L.                                                                                                      C ISLA DE JAVA 5                                  MADRID (MADRID)          28034913341500      20190405WDF4157031U201353 LI20170907T19415   B82850785 R000000N   Notiene@notiene.com                                                                                                                                                                                                                                                       00395605769KCX   0000000000000000000022580000000000000000120190403363101JOSE ANGEL ORTIZ LUC                                                                                                                                                                                                                                                                          
177014177                  INDUSTRIA TECNICA REPARACION DE AUTOMOVILES, S.L.U                                                                                                    C PRADILLO 19                                     MADRID                   28002915158840      20190405WDD1760081J760475 TU20180424SEGU19105B82850736 7000000N   Notiene@notiene.com                                                                                                 MARIA BELEN                                       FERNANDEZ LLAMAZARES                                                                                00056729475KKG   0000000000000000000389450000000000000000120190403365031ALEJANDRO IZQUIERDO MARIA BELEN                                       FERNANDEZ LLAMAZARES                                                                                                Notiene@notiene.com                                                                                 
177014177 20300810         FRANCISCO                                         MORENO JIMENEZ                                                                                      C CALERUEGA, Nº 78                                MADRID                   28033913029801      20190405WDB2030081A659299 TU20040430TC191527 01776328S R000000S   fmj1940@hotmail.com                                                                                 679721455       FRANCISCO                                         MORENO JIMENEZ                                                                                      02023114502CVT   0000260400000269000033980000000000000000120190405376201JUAN CARLOS MARTINEZFRANCISCO                                         MORENO JIMENEZ                                                                                      913029801       fmj1940@hotmail.com                                                                                 
177014177 41570313-ECF     JOSE MANUEL                                       DIAZ MARTINEZ                                                                                       C ARTAJONA 18 5 D                                 MADRID                   28039913114277      20190405WDF4157031U247875 LI20190305GARA1911400826337Q M000000N   josmadima@yahoo.es                                                                                  636862844       JOSE MANUEL                                       DIAZ MARTINEZ                                                                                       00000058252KVC   0000000000000000000050000000000000000000120190405376651JORGE SANZ          JOSE MANUEL                                       DIAZ MARTINEZ                                                                                       913114277       josmadima@yahoo.es                                                                                  
177014177 41570313-ECF     ANA                                               CORTES JIMENEZ                                                                                      C LOS SAUCES 19                                   CASAR DE ESCALONA, EL (TO45542697133724      20190405WDF4157031U248609 LI        GARA1911404221446A M000000N   alexvalencia24.ave@gmail.com                                                                        676033137       ANA                                               CORTES JIMENEZ                                                                                      00000058885KVF   0000000000000000000050000000000000000000120190405376771JORGE SANZ          ANA                                               CORTES JIMENEZ                                                                                      697133724       alexvalencia24.ave@gmail.com                                                                        
177014177 44760113-ERA     JUAN CARLOS                                       GARCIA LOPEZ                                                                                        C TABLADA 37 BAJO 4                               MADRID                   28039638049444      20190405WDF44760113487985 LI20190402GARA1911451389707W M000000N   carlosgarciatetuan@gmail.com                                                                        638049444       JUAN CARLOS                                       GARCIA LOPEZ                                                                                        00000056209KVY   0000000000000000000050000000000000000000120190405376891JORGE SANZ          JUAN CARLOS                                       GARCIA LOPEZ                                                                                        638049444       carlosgarciatetuan@gmail.com                                                                        
177014177 20400710         GALA TERESA                                       BARNETO HERNANDEZ                                                                                   C LEOPOLDO ALAS CLARIN Nº 6                       MADRID                   28035913733802      20190405WDD2040071A146604 TU        ATC1973  02533471K A000000N   Notiene@notiene.com                                                                                 610574782       BARNETO                                           HERNANDEZ                                                                                           00466809812GCW   0000000000000000000152920000000000000000120190405378191FERNANDO PRIETO PEREGALA TERESA                                       BARNETO HERNANDEZ                                                                                   913733802       Notiene@notiene.com                                                                                 
177014177 20400710         GALA TERESA                                       BARNETO HERNANDEZ                                                                                   C LEOPOLDO ALAS CLARIN Nº 6                       MADRID                   28035913733802      20190405WDD2040071A146604 TU        TC191537 02533471K R000000N   Notiene@notiene.com                                                                                 610574782       BARNETO                                           HERNANDEZ                                                                                           00466809812GCW   0000000000000000000129980000229400000000120190405378201FERNANDO PRIETO PEREGALA TERESA                                       BARNETO HERNANDEZ                                                                                   913733802       Notiene@notiene.com                                                                                 